{
  "contractName": "BlenderEthDai",
  "abi": [
    {
      "inputs": [],
      "stateMutability": "nonpayable",
      "type": "constructor"
    },
    {
      "anonymous": false,
      "inputs": [
        {
          "indexed": false,
          "internalType": "address",
          "name": "sender",
          "type": "address"
        },
        {
          "indexed": false,
          "internalType": "uint256",
          "name": "value",
          "type": "uint256"
        },
        {
          "indexed": false,
          "internalType": "uint256",
          "name": "balance",
          "type": "uint256"
        }
      ],
      "name": "CollateralAdded",
      "type": "event"
    },
    {
      "anonymous": false,
      "inputs": [
        {
          "indexed": false,
          "internalType": "uint256",
          "name": "previousPrice",
          "type": "uint256"
        },
        {
          "indexed": false,
          "internalType": "uint256",
          "name": "newPrice",
          "type": "uint256"
        }
      ],
      "name": "PriceUpdated",
      "type": "event"
    },
    {
      "inputs": [],
      "name": "asset_price",
      "outputs": [
        {
          "internalType": "uint256",
          "name": "",
          "type": "uint256"
        }
      ],
      "stateMutability": "view",
      "type": "function",
      "constant": true
    },
    {
      "inputs": [],
      "name": "borrow_apr",
      "outputs": [
        {
          "internalType": "uint256",
          "name": "",
          "type": "uint256"
        }
      ],
      "stateMutability": "view",
      "type": "function",
      "constant": true
    },
    {
      "inputs": [
        {
          "internalType": "address",
          "name": "",
          "type": "address"
        }
      ],
      "name": "collateral",
      "outputs": [
        {
          "internalType": "uint256",
          "name": "",
          "type": "uint256"
        }
      ],
      "stateMutability": "view",
      "type": "function",
      "constant": true
    },
    {
      "inputs": [
        {
          "internalType": "uint256",
          "name": "_price",
          "type": "uint256"
        }
      ],
      "name": "update_price",
      "outputs": [],
      "stateMutability": "nonpayable",
      "type": "function"
    },
    {
      "inputs": [],
      "name": "add_collateral",
      "outputs": [],
      "stateMutability": "payable",
      "type": "function",
      "payable": true
    }
  ],
  "bytecode": "0x60806040526102bc600155610fa060025534801561001c57600080fd5b50336000806101000a81548173ffffffffffffffffffffffffffffffffffffffff021916908373ffffffffffffffffffffffffffffffffffffffff16021790555061056b8061006c6000396000f3fe60806040526004361061004a5760003560e01c806344731da41461004f5780638e18037714610078578063a5fdc5de146100a3578063bac4daa2146100e0578063ecf880531461010b575b600080fd5b34801561005b57600080fd5b50610076600480360381019061007191906102e2565b610115565b005b34801561008457600080fd5b5061008d6101f0565b60405161009a919061031e565b60405180910390f35b3480156100af57600080fd5b506100ca60048036038101906100c59190610397565b6101f6565b6040516100d7919061031e565b60405180910390f35b3480156100ec57600080fd5b506100f561020e565b604051610102919061031e565b60405180910390f35b610113610214565b005b60008054906101000a900473ffffffffffffffffffffffffffffffffffffffff1673ffffffffffffffffffffffffffffffffffffffff163373ffffffffffffffffffffffffffffffffffffffff16146101a3576040517f08c379a000000000000000000000000000000000000000000000000000000000815260040161019a90610421565b60405180910390fd5b60006002549050816002819055507f945c1c4e99aa89f648fbfe3df471b916f719e16d960fcec0737d4d56bd696838816002546040516101e4929190610441565b60405180910390a15050565b60025481565b60036020528060005260406000206000915090505481565b60015481565b34600360003373ffffffffffffffffffffffffffffffffffffffff1673ffffffffffffffffffffffffffffffffffffffff16815260200190815260200160002060008282546102639190610499565b925050819055507f11f8990ac38271f23dea447d5728e9914fca7cea2edda43af6c43c415f8bc30b33344760405161029d939291906104fe565b60405180910390a1565b600080fd5b6000819050919050565b6102bf816102ac565b81146102ca57600080fd5b50565b6000813590506102dc816102b6565b92915050565b6000602082840312156102f8576102f76102a7565b5b6000610306848285016102cd565b91505092915050565b610318816102ac565b82525050565b6000602082019050610333600083018461030f565b92915050565b600073ffffffffffffffffffffffffffffffffffffffff82169050919050565b600061036482610339565b9050919050565b61037481610359565b811461037f57600080fd5b50565b6000813590506103918161036b565b92915050565b6000602082840312156103ad576103ac6102a7565b5b60006103bb84828501610382565b91505092915050565b600082825260208201905092915050565b7f4e6f74204f776e65720000000000000000000000000000000000000000000000600082015250565b600061040b6009836103c4565b9150610416826103d5565b602082019050919050565b6000602082019050818103600083015261043a816103fe565b9050919050565b6000604082019050610456600083018561030f565b610463602083018461030f565b9392505050565b7f4e487b7100000000000000000000000000000000000000000000000000000000600052601160045260246000fd5b60006104a4826102ac565b91506104af836102ac565b9250827fffffffffffffffffffffffffffffffffffffffffffffffffffffffffffffffff038211156104e4576104e361046a565b5b828201905092915050565b6104f881610359565b82525050565b600060608201905061051360008301866104ef565b610520602083018561030f565b61052d604083018461030f565b94935050505056fea26469706673582212207725f2d2ef17ad58a7dc140acb086cfb062afb9eba9d29ae6b304ee5cec34f2f64736f6c634300080b0033",
  "immutableReferences": {},
  "source": "// SPDX-License-Identificer: MIT\npragma solidity ^0.8;\n\ncontract BlenderEthDai {\n    address payable owner;\n    event CollateralAdded(address sender, uint value, uint balance);\n    event PriceUpdated(uint previousPrice, uint newPrice);\n\n    uint public borrow_apr = 700;\n    uint public asset_price = 4000;\n\n    mapping (address => uint256) public collateral;\n\n    modifier onlyOwner() {\n        require(msg.sender == owner, 'Not Owner');\n        _;\n    }\n\n    constructor() {\n        owner = payable(msg.sender);\n    }\n\n    function update_price(uint _price) public onlyOwner {\n        uint previousPrice = asset_price;\n        asset_price = _price;\n        emit PriceUpdated(previousPrice, asset_price);\n    }\n\n    function add_collateral() payable public {\n        collateral[msg.sender] += msg.value;\n        emit CollateralAdded(msg.sender, msg.value, address(this).balance);\n    }\n\n    // function borrow(uint256 _amount) public {\n    //     //\n    // }\n}",
  "sourcePath": "/Users/cristiani/Code/blockchain/blender/contracts/BlenderEthDai.sol",
  "compiler": {
    "name": "solc",
    "version": "0.8.11+commit.d7f03943.Emscripten.clang"
  },
  "schemaVersion": "3.4.1",
  "updatedAt": "2021-12-31T01:01:01.677Z",
  "networkType": "ethereum",
  "devdoc": {
    "kind": "dev",
    "methods": {},
    "version": 1
  },
  "userdoc": {
    "kind": "user",
    "methods": {},
    "version": 1
  }
}