{
  "contractName": "BlenderEthDai",
  "abi": [
    {
      "inputs": [],
      "stateMutability": "nonpayable",
      "type": "constructor"
    },
    {
      "anonymous": false,
      "inputs": [
        {
          "indexed": false,
          "internalType": "address",
          "name": "sender",
          "type": "address"
        },
        {
          "indexed": false,
          "internalType": "uint256",
          "name": "value",
          "type": "uint256"
        },
        {
          "indexed": false,
          "internalType": "uint256",
          "name": "balance",
          "type": "uint256"
        }
      ],
      "name": "CollateralAdded",
      "type": "event"
    },
    {
      "anonymous": false,
      "inputs": [
        {
          "indexed": false,
          "internalType": "uint256",
          "name": "previousPrice",
          "type": "uint256"
        },
        {
          "indexed": false,
          "internalType": "uint256",
          "name": "newPrice",
          "type": "uint256"
        }
      ],
      "name": "PriceUpdated",
      "type": "event"
    },
    {
      "inputs": [],
      "name": "asset_price",
      "outputs": [
        {
          "internalType": "uint256",
          "name": "",
          "type": "uint256"
        }
      ],
      "stateMutability": "view",
      "type": "function"
    },
    {
      "inputs": [
        {
          "internalType": "address",
          "name": "",
          "type": "address"
        }
      ],
      "name": "collateral",
      "outputs": [
        {
          "internalType": "uint256",
          "name": "",
          "type": "uint256"
        }
      ],
      "stateMutability": "view",
      "type": "function"
    },
    {
      "inputs": [
        {
          "internalType": "uint256",
          "name": "_price",
          "type": "uint256"
        }
      ],
      "name": "update_price",
      "outputs": [],
      "stateMutability": "nonpayable",
      "type": "function"
    },
    {
      "inputs": [],
      "name": "add_collateral",
      "outputs": [],
      "stateMutability": "payable",
      "type": "function"
    }
  ],
  "bytecode": "0x60806040526102bc600155610fa060025534801561001c57600080fd5b50336000806101000a81548173ffffffffffffffffffffffffffffffffffffffff021916908373ffffffffffffffffffffffffffffffffffffffff16021790555061047c8061006c6000396000f3fe60806040526004361061003f5760003560e01c806344731da4146100445780638e1803771461006d578063a5fdc5de14610098578063ecf88053146100d5575b600080fd5b34801561005057600080fd5b5061006b60048036038101906100669190610270565b6100df565b005b34801561007957600080fd5b50610082610184565b60405161008f91906102ac565b60405180910390f35b3480156100a457600080fd5b506100bf60048036038101906100ba9190610325565b61018a565b6040516100cc91906102ac565b60405180910390f35b6100dd6101a2565b005b60008054906101000a900473ffffffffffffffffffffffffffffffffffffffff1673ffffffffffffffffffffffffffffffffffffffff163373ffffffffffffffffffffffffffffffffffffffff161461013757600080fd5b60006002549050816002819055507f945c1c4e99aa89f648fbfe3df471b916f719e16d960fcec0737d4d56bd69683881600254604051610178929190610352565b60405180910390a15050565b60025481565b60036020528060005260406000206000915090505481565b34600360003373ffffffffffffffffffffffffffffffffffffffff1673ffffffffffffffffffffffffffffffffffffffff16815260200190815260200160002060008282546101f191906103aa565b925050819055507f11f8990ac38271f23dea447d5728e9914fca7cea2edda43af6c43c415f8bc30b33344760405161022b9392919061040f565b60405180910390a1565b600080fd5b6000819050919050565b61024d8161023a565b811461025857600080fd5b50565b60008135905061026a81610244565b92915050565b60006020828403121561028657610285610235565b5b60006102948482850161025b565b91505092915050565b6102a68161023a565b82525050565b60006020820190506102c1600083018461029d565b92915050565b600073ffffffffffffffffffffffffffffffffffffffff82169050919050565b60006102f2826102c7565b9050919050565b610302816102e7565b811461030d57600080fd5b50565b60008135905061031f816102f9565b92915050565b60006020828403121561033b5761033a610235565b5b600061034984828501610310565b91505092915050565b6000604082019050610367600083018561029d565b610374602083018461029d565b9392505050565b7f4e487b7100000000000000000000000000000000000000000000000000000000600052601160045260246000fd5b60006103b58261023a565b91506103c08361023a565b9250827fffffffffffffffffffffffffffffffffffffffffffffffffffffffffffffffff038211156103f5576103f461037b565b5b828201905092915050565b610409816102e7565b82525050565b60006060820190506104246000830186610400565b610431602083018561029d565b61043e604083018461029d565b94935050505056fea2646970667358221220d9675b80dffc868200af2ffb985e502e2c4a94aced62d82a0fa96a08d15a4d3264736f6c634300080b0033",
  "immutableReferences": {},
  "source": "// SPDX-License-Identificer: MIT\npragma solidity ^0.8;\n\ncontract BlenderEthDai {\n    address payable owner;\n    event CollateralAdded(address sender, uint value, uint balance);\n    event PriceUpdated(uint previousPrice, uint newPrice);\n\n    uint borrow_apr = 700;\n    uint public asset_price = 4000;\n\n    mapping (address => uint256) public collateral;\n\n    constructor() {\n        owner = payable(msg.sender);\n    }\n\n    function update_price(uint _price) public {\n        require(msg.sender == owner);\n        uint previousPrice = asset_price;\n        asset_price = _price;\n        emit PriceUpdated(previousPrice, asset_price);\n    }\n\n    function add_collateral() payable public {\n        collateral[msg.sender] += msg.value;\n        emit CollateralAdded(msg.sender, msg.value, address(this).balance);\n    }\n\n    // function borrow(uint256 _amount) public {\n    //     //\n    // }\n}",
  "sourcePath": "/Users/cristiani/Code/blockchain/blender/contracts/BlenderEthDai.sol",
  "compiler": {
    "name": "solc",
    "version": "0.8.11+commit.d7f03943.Emscripten.clang"
  },
  "schemaVersion": "3.4.1",
  "updatedAt": "2021-12-30T19:17:25.451Z",
  "devdoc": {
    "kind": "dev",
    "methods": {},
    "version": 1
  },
  "userdoc": {
    "kind": "user",
    "methods": {},
    "version": 1
  }
}